:100000000C94ED160C9417170C9417170C941717E3
:100010000C9417170C9417170C9417170C941717A8
:100020000C9417170C9417170C9417170C94171798
:100030000C9417170C94679B0C9417170C941717B4
:100040000C9417170C949F4E0C94C8E00C9417173F
:100050000C9403D40C94F9D30C9417170C94171721
:100060000C9417170C9417170C9417170C94171758
:100070000C9417170C9417170C9417170C94171748
:100080000C942BCF0C9417170C94171700B9BFB70B
:10009000F6B73CB9F6B7F6B7F6B7F6B7F6B7F6B7B0
:1000A000F6B7F6B7F6B7F6B7F6B7F6B7F6B7F6B7E8
:1000B000F6B7F6B7F6B7F6B7F6B7F6B7F6B7F6B7D8
:1000C000F6B7F6B7F6B7F6B736B9F6B7F6B7F6B786
:1000D000F6B7F6B7F6B7F6B7F6B70FB9F6B7F6B79D
:1000E000F6B7F6B7F6B7F6B7F6B7F6B7F6B7F6B7A8
:1000F00053B9F3B7B5DDB8DDABDDAFDDCFDDCFDDB7
:10010000BCDDC0DDC6DDCADD37E03CE041E04BE0F0
:1001100079E079E055E05DE065E06FE04E414E4901
:100120004E495459494E46CDCCCC3D0AD7233C17B5
:10013000B7D13877CC2B329595E6241FB14F0A0002
:100140000020410000C84200401C4620BCBE4CCAF2
:100150001B0E5AAEC59D7400407A10F35A00A0726F
:100160004E18090010A5D4E80000E87648170000F2
:10017000E40B54020000CA9A3B000000E1F50500C0
:100180000080969800000040420F000000A0860109
:10019000000000102700000000E8030000000064D9
:1001A00000000000000A0000000000010000000044
:1001B000002C76D888DC674F0823DFC1DFAE59E119
:1001C000B1B796E5E3E453C63AE651997696E8E688
:1001D000C28426EB898C9B62ED407C6FFCEFBC9C5B
:1001E0009F40F2BAA56FA5F490055A2AF75C936B6D
:1001F0006CF9676DC11BFCE0E40D47FEF520E6B528
:1002000000D0ED902E0300943577050080841E0801
:100210000000204E0A000000C80C333333330F981F
:100220006E12831141EF8D2114893BE65516CFFEE6
:10023000E6DB18D1844B381BF77C1D901DA4BBE472
:1002400024203284725E228100C9F124ECA1E53DB4
:1002500027434F4D4D554E49434154494F4E00445D
:10026000525952554E004552524F525300494E4634
:100270004F004543484F00536C6565702E2E2E008D
:10028000486F6D652058592066697273740A00487A
:100290006F6D6520585920666972737400205A3A50
:1002A000200020593A200042656420583A20004D31
:1002B00065736820706F696E742063616E6E6F7411
:1002C000206265207265736F6C7665640A00436C0A
:1002D00069636B20746F20726573756D652E2E2EA9
:1002E000004E6F206D6F76652E00456E6420666946
:1002F0006C65206C6973740A00426567696E2066DC
:10030000696C65206C6973740A00286E6F206669D9
:100310006C65290043757272656E742066696C6540
:100320003A20005344207072696E74696E672062CF
:1003300079746520004E6F74205344207072696E8A
:1003400074696E670A002569730025696D20256947
:1003500073002569682025696D202569730025696A
:1003600064202569682025696D2025697300256949
:100370007920256964202569682025696D20256913
:1003800073005072696E742074696D653A200020A4
:10039000573A004520436F6F6C696E672E2E2E0012
:1003A000452048656174696E672E2E2E006F666663
:1003B0000072026D0266025F0251024445425547D7
:1003C0003A0020573A0042656420636F6F6C696E93
:1003D000672E2E2E004265642068656174696E6721
:1003E0002E2E2E006F6B003344205072696E7465A0
:1003F00072204F46462E004348414D4245525F54BD
:10040000454D5045524154555245004D4F54494F6A
:100410004E5F4D4F44455300544845524D414C5F4B
:1004200050524F54454354494F4E004155544F523A
:1004300045504F52545F53445F53544154555300F9
:1004400050524F4D50545F535550504F52540045E9
:100450004D455247454E43595F5041525345520016
:10046000434153455F4C494748545F4252494748CE
:10047000544E45535300544F47474C455F4C4947F2
:1004800048545300534F4654574152455F504F57BD
:100490004552004255494C445F50455243454E54E5
:1004A000004C4556454C494E475F44415441005A23
:1004B0005F50524F4245004155544F4C4556454CB4
:1004C000005052494E545F4A4F420050524F4752DB
:1004D000455353004155544F5245504F52545F5469
:1004E000454D5000564F4C554D45545249430045DB
:1004F0004550524F4D0042494E4152595F46494C7A
:10050000455F5452414E534645520053455249416E
:100510004C5F584F4E5F584F4646004649524D5724
:100520004152455F4E414D453A4D61726C696E20B6
:100530006275676669782D322E302E7820284769DB
:10054000746875622920534F555243455F434F44A9
:10055000455F55524C3A68747470733A2F2F67692F
:10056000746875622E636F6D2F4D61726C696E4693
:1005700069726D776172652F4D61726C696E205082
:10058000524F544F434F4C5F56455253494F4E3A8A
:10059000312E30204D414348494E455F5459504516
:1005A0003A3344205072696E746572204558545233
:1005B000554445525F434F554E543A3120555549A5
:1005C000443A63656465326132662D343161322D9F
:1005D000343734382D396231322D63353563363254
:1005E0006633363766660A002F2F20004D313435CA
:1005F00020533C696E6465783E206F7574206F6689
:100600002072616E67652028302D31290A00205440
:1006100000205200416363656C65726174696F6E9E
:100620003A2050005741524E494E4721204C6F7797
:10063000205A204A65726B206D6179206C65616477
:1006400020746F20756E77616E74656420706175BB
:100650007365732E0A00205A00205900580020208C
:100660004D61783A2000205A00205900580020207F
:100670004D696E3A2000536F667420656E64737422
:100680006F70733A200020466C6F773A20005072EA
:100690006F7465637465642050696E0A00206F751D
:1006A00074206F662072616E67650A00536572760A
:1006B0006F20003A200020536572766F2000496E4B
:1006C00076616C69642065787472756465720A007D
:1006D00020643A0020693A0020703A00646973008F
:1006E000656E0043290A0061626C656420286D69AB
:1006F0006E2074656D702000436F6C6420657874A3
:1007000072756465732061726520004D65736820A1
:10071000706F696E742063616E6E6F742062652005
:100720007265736F6C7665640A004D3432312069EE
:100730006E636F727265637420706172616D65744F
:1007400065722075736167650A004F66667365742C
:1007500073206170706C696564004572723A205450
:100760006F6F206661722100546F6F206661722086
:1007700066726F6D207265666572656E6365207066
:100780006F696E740A00454550524F4D204F4B0A19
:10079000003F5A206F7574206F662072616E676526
:1007A00020282D323020746F203230290A005072F8
:1007B0006F6265205A204F66667365743A20004F59
:1007C0004646004F4E00506F7765722D6C6F737305
:1007D000207265636F766572792000496E76616C70
:1007E00069642065787472756465720A0000005C43
:1007F0004300005C4300007A43000000000000005A
:1008000000000000004D3235004D323400496E6961
:10081000742E2053442063617264004D32310052C3
:10082000656C656173652053442063617264004D9B
:100830003232005072696E742066726F6D205344BC
:1008400000436F6E66696775726174696F6E0054FC
:10085000656D7065726174757265004D6F74696F56
:100860006E00526573756D65207072696E74004319
:100870006172642072656C65617365640054756EA5
:10088000650053746F70207072696E7400506175EA
:100890007365207072696E7400496E666F207363B1
:1008A0007265656E004D6F76652058004D6F7665F8
:1008B0002059004D6F7665205A0045787472756432
:1008C0006572004578747275646572004D6F766567
:1008D000205A004D6F76652059004D6F766520587F
:1008E000004D6F74696F6E0044697361626C6520BE
:1008F0007374657070657273004D383400466164BE
:1009000065204865696768740046616465204865CC
:1009100069676874004F6666004F6E004265642028
:100920004C6576656C696E67004C6576656C206217
:100930006564004732380A473239004175746F20C8
:10094000686F6D6500473238004D6F7665206178BD
:100950006973004D61696E0053544F502063616CA0
:100960006C65642062656361757365206F66204203
:100970004C546F756368206572726F72202D2072FF
:100980006573746172742077697468204D393939E0
:100990000A004F46460A004661646520486569675B
:1009A00068742000426564204C6576656C696E67EA
:1009B00020004661696C656420746F20656E616219
:1009C0006C6520426564204C6576656C696E670ACB
:1009D00000496E76616C6964206D6573682E0A004B
:1009E0004D35303000202844525952554E29004789
:1009F0003239204175746F20426564204C657665FC
:100A00006C696E67003F20284C2C522C462C4229E2
:100A1000206F7574206F6620626F756E64732E0A86
:100A2000003F2856296572626F7365206C65766594
:100A30006C20697320696D706C61757369626C6597
:100A40002028302D34292E0A00426164205A207655
:100A5000616C75650A004E6F2062696C696E656134
:100A60007220677269640A00204500205A002059EC
:100A700000204D39322058004D32342053256C640B
:100A80002054256C64004D323320257300473932E1
:100A90002E39204525730047312046256400473113
:100AA000205A2573204632303000473120582573B4
:100AB00020592573204633303030004D34323020F9
:100AC000532569205A2573004D3130362050256951
:100AD00020532569004D31303920532569004D31AF
:100AE000393020532569004739322E392045305A94
:100AF000300A47315A320A47323852305859004D7D
:100B0000343230205330205A300020496E76616CE8
:100B1000696420657874727564657220004265644A
:100B20002068656174696E67206661696C65640040
:100B300048656174696E67206661696C656400422E
:100B4000454420544845524D414C2052554E415742
:100B5000415900546865726D616C2052756E617701
:100B600061790045312048656174696E672066616E
:100B7000696C65640048656174696E6720666169C7
:100B80006C656400453120544845524D414C20521B
:100B9000554E4157415900546865726D616C205241
:100BA000756E6177617900202D20496E76616C69E0
:100BB00064206578747275646572206E756D626507
:100BC0007220210A0070012C0190012701B001223E
:100BD00001C0011D01F00118011002130130020EC5
:100BE000016002090190020401C002FF000003FA43
:100BF000004003F5008003F000D003EB002004E682
:100C0000007004E100E004DC004005D700C005D21C
:100C1000004006CD00D006C8008007C3003008BEE3
:100C200000F008B900C009B400B00AAF00B00BAAC8
:100C300000D00CA500000EA000500F9B00C0109625
:100C4000005012910000148C00C0158700B017826C
:100C500000B0197D00D01B7800001E730040206E8C
:100C60000090226900F024640040275F0090295A18
:100C700000E02B5500102E500020304B0010324663
:100C800000E033410090353C0010373700703832B7
:100C900000A0392D00B03A2800A03B2300603C1E84
:100CA00000103D1900903D1400103E0F00703E0AE8
:100CB00000C03E0500003F0000403FFBFF803FF6C4
:100CC000FFC03FF1FF453120544845524D414C2073
:100CD00052554E41574159004245442054484552CF
:100CE0004D414C2052554E41574159005468657250
:100CF0006D616C2052756E617761790045312045D8
:100D000072723A204D415854454D50004572723A26
:100D1000204D415854454D5020424544004D4158C6
:100D200054454D502074726967676572656400456B
:100D300031204572723A204D494E54454D50004580
:100D400072723A204D494E54454D50204245440060
:100D50004D494E54454D5020747269676765726500
:100D600064004D383420582059205A204500202F47
:100D7000002042403A0020403A00220A00556E6BA3
:100D80006E6F776E20636F6D6D616E643A20220026
:100D900020746F6F206C6F6E672065787472757346
:100DA000696F6E2070726576656E7465640A0020E6
:100DB000636F6C6420657874727573696F6E2070F0
:100DC000726576656E7465640A00416D61782045D0
:100DD00000416D6178204500416D6178205A0041E5
:100DE0006D6178205A00416D6178205900416D6134
:100DF00078205900416D6178205800416D6178205C
:100E00005800412D74726176656C00412D747261D9
:100E100076656C00412D7265747261637400412DBA
:100E20007265747261637400416363656C00416351
:100E300063656C00416476616E636564205365741C
:100E400074696E67730056652D6A65726B0056652E
:100E50002D6A65726B00567A2D6A65726B00567A40
:100E60002D6A65726B0056792D6A65726B00567932
:100E70002D6A65726B0056782D6A65726B00567824
:100E80002D6A65726B00416476616E636564205300
:100E9000657474696E6773004573746570732F6D44
:100EA0006D004573746570732F6D6D005A737465B2
:100EB00070732F6D6D005A73746570732F6D6D00B4
:100EC0005973746570732F6D6D0059737465707309
:100ED0002F6D6D005873746570732F6D6D005873AE
:100EE000746570732F6D6D00416476616E63656427
:100EF0002053657474696E67730020746F6F206C83
:100F00006F6E6720657874727573696F6E2070728A
:100F10006576656E7465640A0020636F6C64206595
:100F20007874727573696F6E2070726576656E7411
:100F300065640A00486F6D696E67206661696C655B
:100F4000640000000000000000000000000000003D
:100F5000F0410000F041000080405761726E696E00
:100F6000673A20486F6D696E672042756D70204446
:100F7000697669736F72203C20310A000202040016
:100F800000A0400000A0400000004000005C4300C2
:100F9000005C4300007A43FFFFFF3F00496E697425
:100FA00069616C697A6520454550524F4D00436137
:100FB0006E63656C00496E697400496E697469619D
:100FC0006C697A6520454550524F4D0046696C6109
:100FD0006D656E740054656D7065726174757265CF
:100FE0000053746570732F6D6D004A65726B00411C
:100FF0006363656C65726174696F6E0056656C6FD2
:101000006369747900436F6E6669677572617469AC
:101010006F6E00424C546F756368203556204D6FDB
:10102000646500424C546F756368205357204D6FC0
:1010300064650053746F7720424C546F7563680089
:101040004465706C6F7920424C546F756368004240
:101050004C546F7563682053656C662D54657374CA
:1010600000424C546F756368204F44204D6F646597
:1010700000526573657420424C546F756368004D6F
:1010800061696E00526573746F7265206661696C88
:1010900073616665004C6F61642073657474696E7A
:1010A00067730053746F72652073657474696E673B
:1010B00073004F6666004F6E004F75746167652060
:1010C0005265636F7665727900424C546F75636840
:1010D0000050726F6265205A204F66667365740017
:1010E00050726F6265205A204F66667365740041C6
:1010F0006476616E6365642053657474696E6773AA
:10110000004D61696E004D313030300053746F70A6
:10111000207072696E7400526573756D652070720F
:10112000696E74004F7574616765205265636F76F0
:10113000657279005072696E742061626F727465B5
:1011400064003F0053746F70207072696E740042C7
:1011500061636B0053746F70007C3C3E5E2B3D3FBF
:101160002F5B5D3B2C2A225C0043616E6E6F742006
:101170006F70656E2073756264697220005344203D
:1011800063617264206F6B0A006F70656E526F6FDF
:1011900074206661696C65640A00766F6C756D65B4
:1011A0002E696E6974206661696C65640A00534437
:1011B00020696E6974206661696C0A004D323400E2
:1011C0004D32332025730057726974696E6720743D
:1011D0006F2066696C653A20002E0A006F70656E9C
:1011E000206661696C65642C2046696C653A200054
:1011F0002E0A006F70656E206661696C65642C2034
:1012000046696C653A200046696C652073656C65BB
:10121000637465640A002053697A653A2000466960
:101220006C65206F70656E65643A20006672657348
:101230006800646F696E67002066696C653A20001B
:101240004E6F772000454E4420535542524F55541F
:10125000494E450A002220706F730022207061728F
:10126000656E743A2200535542524F5554494E45CB
:101270002043414C4C207461726765743A220074BB
:101280007279696E6720746F2063616C6C2073756E
:10129000622D67636F64652066696C65732077698A
:1012A000746820746F6F206D616E79206C6576654F
:1012B0006C732E204D4158206C6576656C206973E7
:1012C0003A310A002E0A0044656C6574696F6E201D
:1012D0006661696C65642C2046696C653A2000463D
:1012E000696C652064656C657465643A002E0A005B
:1012F0006F70656E206661696C65642C2046696C50
:10130000653A200057726974696E6720746F2066B1
:10131000696C653A200023646566696E6520444502
:101320004641554C545F004B6420004B6920004BF4
:10133000702000504944204175746F74756E6520AB
:1013400066696E69736865642120507574207468DD
:1013500065206C617374204B702C204B6920616E8A
:1013600064204B6420636F6E7374616E74732066C7
:10137000726F6D2062656C6F7720696E746F2043A9
:101380006F6E66696775726174696F6E2E680A00A8
:10139000504944204175746F74756E6520666169AB
:1013A0006C6564212074696D656F75740A00453140
:1013B00020544845524D414C2052554E41574159B9
:1013C00000546865726D616C2052756E6177617949
:1013D0000045312048656174696E67206661696CFB
:1013E00065640048656174696E67206661696C6553
:1013F0006400504944204175746F74756E652066B1
:1014000061696C6564212054656D706572617475E5
:10141000726520746F6F20686967680A00204B64EA
:101420003A2000204B693A2000204B703A20000AF5
:1014300020436C617373696320504944200A002083
:1014400054753A2000204B753A2000206D61783A9F
:101450002000206D696E3A200020643A200020624E
:101460006961733A2000504944204175746F747566
:101470006E652073746172740A005049442041758E
:10148000746F74756E65206661696C6564212054A3
:10149000656D706572617475726520746F6F206818
:1014A0006967680A00504944204175746F74756E0D
:1014B00065206661696C65642120426164206578FD
:1014C000747275646572206E756D6265720A00458E
:1014D00072723A207574663820666F6E74206E6F73
:1014E0007420696E697469616C697A65642E00455F
:1014F00072723A207574663820666F6E74206E6F53
:101500007420696E697469616C697A65642E00453E
:1015100072723A207574663820666F6E74206E6F32
:101520007420696E697469616C697A65642E000063
:10153000060C00FE07022603BC017FFE08FE08FE23
:1015400005080806000040F0C8888898781005084B
:1015500008060000C0F88888888888F80505050610
:1015600000012030F830200508080600002070F83F
:1015700020202020E00509090600FF2070A8A8B857
:1015800088887020050606060001E08CEA8C8A0A2D
:101590000509090600FFF8A88888888888A8F80542
:1015A0000A0A0600FE205050505088A8A8887003F0
:1015B000030306000340A040FFFFFFFFFFFFFFFF04
:1015C000FFFFFFFFFFFFFFFFFFFFFFFFFFFF000029
:1015D000000605FF0107070602008080808080006A
:1015E00080030303060105A0A0A00506060600006F
:1015F00050F85050F8500509090600FF2070A8A0C7
:101600007028A87020050707060000C8C8102040F1
:10161000989805070706000040A0A040A890680120
:1016200003030602058080800309090601FF2040AC
:10163000408080804040200309090601FF8040402F
:1016400020202040408005070706000020A87020C9
:1016500070A8200505050600012020F820200203BF
:10166000030601FFC04080050101060003F80202E5
:1016700002060100C0C00507070600000810102080
:10168000404080050707060000708898A8C8887049
:1016900003070706010040C040404040E00507073F
:1016A000060000708808102040F8050707060000B3
:1016B000F808103008887005070706000010305041
:1016C00090F81010050707060000F880F008088859
:1016D00070050707060000304080F0888870050715
:1016E00007060000F8081010202020050707060054
:1016F0000070888870888870050707060000708869
:101700008878081060020505060100C0C000C0C04E
:101710000206060601FFC0C000C0408003050506A2
:1017200001012040804020050303060002F800F874
:1017300003050506010180402040800507070600DB
:101740000070881020200020050707060000708820
:10175000B8A8B88070050707060000708888F88868
:101760008888050707060000F04848704848F005DB
:1017700007070600007088808080887005070706CC
:101780000000F04848484848F0050707060000F800
:101790008080F08080F8050707060000F88080F060
:1017A0008080800507070600007088808098887018
:1017B000050707060000888888F8888888030707D7
:1017C000060100E04040404040E0050707060000F9
:1017D000381010101090600507070600008890A0D0
:1017E000C0A0908805070706000080808080808068
:1017F000F805070706000088D8A8888888880507A4
:10180000070600008888C8A898888805070706008A
:101810000070888888888870050707060000F088AF
:1018200088F080808005070706000070888888A8F7
:101830009068050707060000F08888F0A0908805EA
:101840000707060000708880700888700507070683
:101850000000F8202020202020050707060000882F
:101860008888888888700507070600008888888827
:1018700050502005070706000088888888A8A850CF
:10188000050707060000888850205088880507074C
:101890000600008888502020202005070706000049
:1018A000F80810204080F80309090601FFE0808055
:1018B0008080808080E0050707060000804040208F
:1018C0001010080309090601FFE020202020202035
:1018D00020E00503030600052050880501010600ED
:1018E000FEF80303030601058040200505050600F8
:1018F0000070087888780507070600008080F08867
:101900008888F0050505060000708080887005074E
:10191000070600000808788888887805050506000D
:10192000007088F08070050707060000304840E02E
:101930004040400507070600FE70888888780870D8
:101940000507070600008080F0888888880307075D
:101950000601004000C0404040E00409090601FEC5
:10196000100030101010109060050707060000806E
:10197000808890E09088030707060100C04040403F
:101980004040E0050505060000D0A8A8A8A8050568
:1019900005060000B0C888888805050506000070A7
:1019A000888888700507070600FEF0888888F08020
:1019B000800507070600FE788888887808080505EE
:1019C00005060000B0C88080800505050600007887
:1019D000807008F00507070600002020F82020206E
:1019E000180505050600008888889868050505061D
:1019F000000088888850200505050600008888A812
:101A0000A8500505050600008850205088050707E6
:101A10000600FE88888850204080050505060000E5
:101A2000F8102040F80309090601FF2040404080DB
:101A3000404040200109090602FF808080808080AC
:101A40008080800309090601FF804040402040401B
:101A5000408005030306000248A890FF46696C2EEB
:101A6000204469612E0046696C2E204469612E0075
:101A70004F6666004F6E004520696E206D6D5E33C7
:101A800000416476616E6365642053657474696EA9
:101A900067730020082046616374002008204661B7
:101AA0006374002008204D6178002008204D617883
:101AB000002008204D696E002008204D696E004FFF
:101AC0006666004F6E004175746F74656D700041FD
:101AD0006476616E6365642053657474696E6773C0
:101AE000005654726176206D696E005654726176AC
:101AF000206D696E00566D696E00566D696E0056F8
:101B00006D6178204500566D6178204500566D6105
:101B100078205A00566D6178205A00566D61782001
:101B20005900566D6178205900566D617820580033
:101B3000566D6178205800416476616E636564205B
:101B400053657474696E67730024F4D43050C38E87
:101B500020C2A24017828B7011127A910D816CD92C
:101B60000AA861E108C7586607615143061E4B5D2C
:101B700005C145A7041A411104093D980371393183
:101B8000034036DB0265339102D4305402802E1DAF
:101B900002632CEE01752AC501B028A0011027812F
:101BA000018F2564012B244B01E0223401AC211F5D
:101BB000018D200D01801FFC00841EED00971DDFAC
:101BC00000B81CD200E61BC600201BBC00641AB281
:101BD00000B219A8000A19A0006A189900D117913B
:101BE0000040178B00B516840031167E00B31579BE
:101BF000003A157300C7146F0058146A00EE13669C
:101C0000008813630025135E00C7125B006C125737
:101C10000015125400C111510070114F0021114BD9
:101C200000D61049008D10470046104400021042B3
:101C300000C00F4000800F3E00420F3C00060F3BEB
:101C400000CB0E3800930E37005C0E3500270E34A3
:101C500000F30D3200C10D3100900D3000600D2EEB
:101C600000320D2D00050D2C00D90C2B00AE0C29D7
:101C700000850C29005C0C2700350C27000E0C2673
:101C800000E80B2400C40B2400A00B23007D0B23D1
:101C9000005A0B2100390B2100180B2000F80A1FF5
:101CA00000D90A1E00BB0A1E009D0A1D00800A1DE5
:101CB00000630A1C00470A1B002C0A1B00110A1AA9
:101CC00000F7091A00DD091900C4091900AB091948
:101CD00000920917007B091800630917004C0916C8
:101CE0000036091600200916000A091500F5081526
:101CF00000E0081400CC081400B8081400A408146C
:101D000000900813007D0812006B08130058081299
:101D100000460812003408110023081100120811AF
:101D20000001081100F0071000E0071000D00710B4
:101D300000C0071000B0070F00A107100091070EA8
:101D40000083070F0074070F0065070E0057070E8A
:101D50000049070E003B070D002E070E0020070D5F
:101D60000013070D0006070D00F9060C00ED060D27
:101D700000E0060C00D4060C00C8060C00BC060CE3
:101D800000B0060C00A4060B0099060C008D060B93
:101D90000082060B0077060B006C060B0061060A3A
:101DA0000057060B004C060A0042060A0038060AD5
:101DB000002E060A0024060A001A060A0010060968
:101DC0000007060A00FD050900F4050900EB0509F6
:101DD00000E2050900D9050900D0050900C7050979
:101DE00000BE050900B5050800AD050800A50509F8
:101DF000009C050800940508008C0508008405086F
:101E0000007C050800740508006C050700650508DE
:101E1000005D050700560508004E05070047050749
:101E2000004005080038050700310507002A0507AE
:101E300000230507001C050600160507000F05070F
:101E4000000805060002050700FB040600F504076C
:101E500000EE040600E8040600E2040700DB0406C6
:101E600000D5040600CF040600C9040600C304061A
:101E700000BD040600B7040600B1040500AC04066A
:101E800000A6040600A00405009B040600950405B6
:101E900000900406008A04050085040500800406FD
:101EA000007A04050075040500700405006B040544
:101EB0000066040500610405005C04050057040584
:101EC00000520405004D04050048040500430405C4
:101ED000003E0404003A0405003504050030040403
:101EE000002C04050027040400230405001E04043C
:101EF000001A04040016040500110404000D040473
:101F000000090405000404040000040400FC0304A8
:101F100000F8030400F4030400F0030400EC0304DD
:101F200000E8030400E4030400E0030400DC03040D
:101F300000D8030400D4030400D0030400CC03043D
:101F400000C8030300C503030024F404D9201BC404
:101F50000C5C0E9804C4095F0265077101F405F971
:101F600000FB04B30048048700C10369005803550F
:101F70000003034500BE023A008402310053022AE6
:101F8000002902250004022000E4011C00C80119F8
:101F900000AF0117009801140084011300710110B3
:101FA000006101100051010E0043010D0036010BCC
:101FB000002B010B0020010B00150109000C010989
:101FC0000003010800FB000800F3000800EB000715
:101FD00000E4000600DE000600D8000600D200067D
:101FE00000CC000500C7000500C2000500BD0004CC
:101FF00000B9000400B5000400B1000400AD000405
:1020000000A9000400A5000300A20003009F000433
:10201000009B00030098000300950002009300035A
:1020200000900003008D0002008B00030088000276
:10203000008600020084000300810002007F00028D
:10204000007D0002007B00020079000200770001A1
:1020500000760002007400020072000100710002AC
:10206000006F0002006D0001006C0002006A0001B8
:1020700000690002006700010066000100650001C0
:1020800000640002006200010061000100600001C4
:10209000005F0002005D0001005C0001005B0001C8
:1020A000005A0001005900010058000100570001CA
:1020B00000560001005500010054000100530000CB
:1020C00000530001005200010051000100500001C6
:1020D000004F0001004E0000004E0001004D0001C5
:1020E000004C0001004B0000004B0001004A0001C1
:1020F00000490001004800000048000100470001BD
:1021000000460000004600010045000000450001B7
:1021100000440001004300000043000100420000B1
:1021200000420001004100000041000100400001A8
:10213000003F0000003F0001003E0000003E0001A3
:10214000003D0000003D0001003C0000003C00009C
:10215000003C0001003B0000003B0001003A000091
:10216000003A000100390000003900010038000089
:10217000003800000038000100370000003700017F
:102180000036000000360000003600010035000077
:10219000003500000035000100340000003400006C
:1021A0000034000100330000003300000033000160
:1021B0000032000000320000003200010031000057
:1021C000003100000031000100300000003000004C
:1021D00000300001002F0000002F0000002F000041
:1021E000002F0001002E0000002E0000002E000134
:1021F000002D0000002D0000002D0000002D00012A
:10220000002C0000002C0000002C0000002C00011D
:10221000002B0000002B0000002B0000002B000111
:10222000002A0000002A0000002A0000002A000105
:1022300000290000002900000029000000290000FA
:1022400000290001002800000028000000280000EC
:1022500000280000002800010027000000270000DF
:1022600000270000002700000027000100260000D2
:1022700000260000002600000026000000260001C5
:1022800000250000002500000025000000250000BA
:1022900000250000002500010024000000240000AB
:1022A000002400000024000000240001002300009E
:1022B0000023000000230000002300000023000092
:1022C0000023000000230001002200000022000083
:1022D0000022000000220000002200000022000175
:1022E000002100000021000000210000002100006A
:1022F000002100000021000000210001002000005A
:10230000002000000020000000200000002000004D
:10231000002000000020000000200001001F00003D
:10232000001F0000001F0000001F0000001F000031
:10233000001F0000001F0001001E0000001E000022
:10234000001E0000001E000000043700001E2900CF
:1023500000511B00005810000010090000CC0400C0
:10236000007802000041010000626564002C2073C7
:10237000797374656D2073746F7070656421204883
:1023800065617465725F49443A2000506C65617301
:1023900065207265736574005052494E5445522051
:1023A00048414C544544004B494C4C45442E200078
:1023B0005072696E7465722068616C7465642E2059
:1023C0006B696C6C28292063616C6C6564210A0060
:1023D00053544F505045442E20005072696E74651E
:1023E000722073746F707065642064756520746FFB
:1023F000206572726F72732E20466978207468654A
:10240000206572726F7220616E6420757365204D55
:1024100039393920746F20726573746172742E209B
:102420002854656D706572617475726520697320DA
:1024300072657365742E205365742069742061661B
:102440007465722072657374617274696E67290AAB
:10245000006563686F3A004572726F723A004269B4
:102460006C696E656172204C6576656C696E67207B
:10247000477269643A0A0053544F502063616C6C90
:1024800065642062656361757365206F6620424CE8
:10249000546F756368206572726F72202D207265AB
:1024A00073746172742077697468204D3939390A00
:1024B000004D313030302053002020506C616E6E62
:1024C000657242756666657242797465733A20007A
:1024D0002046726565204D656D6F72793A20006205
:1024E00075676669782D322E302E780A004D61723C
:1024F0006C696E0020536F66747761726520526557
:102500007365740A00205761746368646F672052B2
:10251000657365740A002042726F776E206F757460
:102520002052657365740A002045787465726E6187
:102530006C2052657365740A00506F776572557030
:102540000A0073746172740A006175746F25632EDA
:1025500067006572726F722077726974696E6720A6
:10256000746F2066696C650A00446F6E6520736144
:1025700076696E672066696C652E0A004D323900F7
:10258000456E6473746F7073202563202563202566
:102590006320256300205A3A0020593A0020583A17
:1025A00000656E6473746F7073206869743A2000FC
:1025B00047323858590050726F62696E6720666101
:1025C000696C65640A0050726F62696E67206661AB
:1025D000696C656400486F6D6520257325732573EC
:1025E000206669727374002066697273740A004809
:1025F0006F6D6520003F00537461727420707269C2
:102600006E74200043616E63656C005072696E7475
:102610000043616E6E6F7420656E74657220737511
:10262000626469723A2000022E2E000152656672C1
:10263000657368004D61696E00436F6F6C646F77FE
:102640006E0046616E2073706565640046616E20A1
:1026500073706565640042656400426564004E6F96
:102660007A7A6C65004E6F7A7A6C65004D61696E9E
:1026700000466C6F7700466C6F770046616E207382
:10268000706565640046616E207370656564004224
:10269000656400426564004E6F7A7A6C65004E6F27
:1026A0007A7A6C6500537065656400537065656483
:1026B000004D61696E004361703A00220A00656E48
:1026C0007175657565696E672022006F6B005265D4
:1026D00073656E643A200053544F505045442E2089
:1026E000005072696E7465722073746F70706564E7
:1026F0002064756520746F206572726F72732E206E
:1027000046697820746865206572726F7220616E08
:102710006420757365204D39393920746F207265D6
:1027200073746172742E202854656D7065726174C3
:102730007572652069732072657365742E20536508
:1027400074206974206166746572207265737461A7
:102750007274696E67290A004E6F20436865636B67
:1027600073756D2077697468206C696E65206E756D
:102770006D6265722C204C617374204C696E653AF1
:1027800020004E6F20436865636B73756D20776919
:102790007468206C696E65206E756D6265722C20A0
:1027A0004C617374204C696E653A20006368656300
:1027B0006B73756D206D69736D617463682C204C4B
:1027C000617374204C696E653A20004C696E652017
:1027D0004E756D626572206973206E6F74204C6156
:1027E0007374204C696E65204E756D6265722B3175
:1027F0002C204C617374204C696E653A20004D3179
:102800003130004D333100534420726561642065DE
:1028100072726F720A00446F6E65207072696E7416
:10282000696E672066696C650A0025753A25303245
:102830007500253032753A253032750025756420D3
:10284000253032753A253032750020202020202096
:10285000200020202020001FE02010201020101039
:102860002010202010201030300840048003001F6A
:10287000E03FF03FF03FF01FE01FE03FF03FF03F50
:10288000F00FC0078003003FFFF038007030FC30CD
:1028900020FC102078102030102C00D02E31D02FAA
:1028A0007BD02F7BD02E31D02C00D0203010207840
:1028B0001020FC1030FC303800703FFFF03FFFF07C
:1028C0003800703186302387102787902F87D02FCC
:1028D00003D02030102078102078102030102F03E3
:1028E000D02F87D02787902387103186303800700B
:1028F0003FFFF01FFFF81FFFF804104002082002FE
:1029000008200410400820801041001041000820D9
:10291000800410400000001FFFF81FFFF84572728E
:102920006F722077726974696E6720746F204545F5
:1029300050524F4D210A000F150E1216170E130399
:10294000021A1401000E0C190DFF180C0400014BA3
:10295000494C4C2063617573656420627920746F03
:102960006F206D75636820696E6163746976652098
:1029700074696D65202D2063757272656E742063B5
:102980006F6D6D616E643A20002E0A006F70656E87
:10299000206661696C65642C2046696C653A20008C
:1029A000B80B0000B80B0000640000001027000006
:1029B00000009643000096430000A0400000C8417C
:1029C0000000A0420000A0420000C8430000BA423C
:1029D0003A0A0020204D383531205A005A2D5072C5
:1029E0006F6265204F66667365740020204D343138
:1029F00033205300506F7765722D4C6F73732052E4
:102A000065636F766572793A0A00204400204900B8
:102A100020204D33303120500050494420736574DC
:102A200074696E67733A0A0020460020420020480D
:102A30000020204D3134352053004D61746572699A
:102A4000616C2068656174757020706172616D657C
:102A5000746572733A0A00204A00202047323920F8
:102A600057204900205A0020204D34323020530096
:102A70004175746F20426564204C6576656C696EA3
:102A8000673A0A00205A0020590020204D32303683
:102A9000205800486F6D65206F66667365743A0A4A
:102AA00000204500205A00205900205800205400E2
:102AB00020530020204D32303520420020453C6D0F
:102AC00061785F655F6A65726B3E0020583C6D619E
:102AD000785F785F6A65726B3E20593C6D61785F04
:102AE000795F6A65726B3E205A3C6D61785F7A5FF0
:102AF0006A65726B3E00416476616E6365643A207C
:102B0000423C6D696E5F7365676D656E745F746975
:102B10006D655F75733E20533C6D696E5F666565DC
:102B200064726174653E20543C6D696E5F747261BD
:102B300076656C5F66656564726174653E002054FD
:102B40000020520020204D32303420500041636379
:102B5000656C65726174696F6E2028756E69747337
:102B60002F7332293A20503C7072696E745F616332
:102B700063656C3E20523C726574726163745F6180
:102B80006363656C3E20543C74726176656C5F6172
:102B90006363656C3E0A00204500205A00205900FE
:102BA00020204D3230312058004D6178696D756DAF
:102BB00020416363656C65726174696F6E2028756E
:102BC0006E6974732F7332293A0A00204500205A27
:102BD0000020590020204D3230332058004D6178BC
:102BE000696D756D20666565647261746573202812
:102BF000756E6974732F73293A0A00537465707384
:102C00002070657220756E69743A0A0020204D327A
:102C100030302044300A0020204D32303020440033
:102C20002044697361626C65640A0046696C616D79
:102C3000656E742073657474696E67733A00202042
:102C40004D3134392043203B20556E69747320691F
:102C50006E2043656C736975730A0020286D6D29B9
:102C6000002020473231202020203B20556E6974FF
:102C70007320696E206D6D006F70656E005452494F
:102C8000474745524544003A20007A5F6D696E001F
:102C9000795F6D696E00785F6D696E005265706F67
:102CA0007274696E6720656E6473746F70207374DC
:102CB000617475730A00205A3A0020593A00204383
:102CC0006F756E7420583A0020453A00205A3A0039
:102CD00020593A00583A0000002100240027002A19
:102CE0000000002200250028002B00000020002307
:102CF0000026002900020202020202020204040469
:102D00000404040404030303030303030301010194
:102D100001010101010102040810204080010204A8
:102D200008102040800102040810204080804020CC
:102D30001008040201000000010200090A0000005E
:102D4000000403080700000000000000000000006D
:102D500000000000004D6F766520302E316D6D0053
:102D60004D6F766520316D6D004D6F766520313089
:102D70006D6D004D6F7665206178697300486F74E2
:102D8000656E6420746F6F20636F6C6400457874A7
:102D90007275646572004D6F7665205A004D6F76CE
:102DA000652059004D6F76652058003344205072DD
:102DB000696E7465722052656164792E0050726983
:102DC0006E74696E672E2E2E005072696E742070BC
:102DD000617573656400A2EA84EA11241FBECFEF17
:102DE000D0E4DEBFCDBF12E0A0E0B1E0E8E8F3EF51
:102DF00001E00BBF02C007900D92A436B107D9F7CE
:102E000025E1A4E6B2E001C01D92AE35B207E1F7BC
:102E100016E1CCEED6E104C02197FE010E9415F721
:102E2000CB3ED107C9F70E94D1E40C94B7F90C94BA
:102E300000002F923F924F925F926F927F928F92FB
:102E40009F92AF92BF92CF92DF92EF92FF920F9339
:102E50001F93CF93DF93CDB7DEB7EB970FB6F89400
:102E6000DEBF0FBECDBF8BAF809141108D3409F412
:102E700091C4843511F40C94662B873411F00C94B2
:102E8000812B80913F10909140108D31910509F474
:102E9000ECC18CF48430910509F4BBC01CF402979A
:102EA00000F174C48531910511F40C94832B4C9777
:102EB00009F4EDC06BC48A35910509F4A3C244F44A
:102EC0008E31910509F4E5C18A9709F491C35EC476
:102ED0008B35910509F49AC28C35910509F49BC292
:102EE00055C480913F01882311F40C94832B1982DF
:102EF0001A821B821C824DE6842E41E0942E9E0194
:102F00002F5F3F4F390159E7E52E5AE0F52E0BE0D0
:102F100015E06CEDA62E6FE0B62E7DE6C72E72E0B2
:102F2000D72E512CD4018D914D010E94C441F30143
:102F300081933F01882311F10E94A03FD6012C917B
:102F4000211104C020917502222341F0F801208153
:102F50003181428153810E941FF70AC0F3E05F165E
:102F600039F0D5012D913D914D915C910E941EF754
:102F7000F70160837183828393830AC0F8018081A3
:102F80009181A281B381F70180839183A283B3836E
:102F90005394F4E0EF0EF11C0C5F1F4F24E0A20EDF
:102FA000B11C3FEFC31AD30A44E05412BBCF8C814B
:102FB000882371F08981811103C08A81882341F0BF
:102FC0008091361282FF04C061E080E00E943F469B
:102FD00040E050E0BA0186E40E948C8F20E030E0AF
:102FE000A9010E94A2F8181684F40E94A03F20E0D4
:102FF00030E040E752E40E94A2F7609359017093D9
:103000005A0180935B0190935C010E94646F0C9461
:10301000832B80E50E94C441882329F00E94583FF9
:103020006B017C0103C0C12CD12C760183E50E9489
:10303000C441882361F00E94A03F20E030E04AE7CD
:1030400054E40E948EF00E941BF86B017C010E94E8
:10305000DB6A8091E902811105C060E087E792E0B8
:103060000E943FE10E94BCE0C60ED71EE81EF91E7A
:103070000E94BCE0DC01CB018C199D09AE09BF099F
:10308000B7FD02C00C94832B0E9488D0F1CF60E082
:103090008FE40E941542882339F08091EC0F8770ED
:1030A000873011F40C94832B0E94DB6A80E00E942D
:1030B000A0A60E9448AE0E94FC7281E08093D00BD3
:1030C0000E94D7D888E50E94D33F082F89E50E9447
:1030D000D33F182F8AE50E94D33FF82E01110AC072
:1030E000111110C081110C94892B11E001E0FF2413
:1030F000F39408C0112331F0882311F40C94892B28
:10310000182F082F80E1EBE0F5E0A9E7BAE0019085
:103110000D928A95E1F782E50E94C441882361F00F
:103120000E94A03F4B015C0120E030E0A9010E9419
:1031300028F0882361F106C0812C912C30EAA32E5F
:1031400030E4B32E011102C0112359F18092810A9B
:103150009092820AA092830AB092840AA5019401F7
:1031600060911305709114058091150590911605D5
:103170000E9428F087FF0BC019821A821B821C82D2
:10318000BE016F5F7F4F81E89AE00E94DC730023ED
:1031900019F080E00E948A74112319F081E00E94E6
:1031A0008A74FF2009F44FC08091DB0F8370833055
:1031B00061F060E08FE892E00E943FE10E945EAF24
:1031C00080E892E00E948FAE3EC00E948874E0903A
:1031D0001305F09014050091150510911605E09265
:1031E000810AF092820A0093830A1093840A80E095
:1031F00090E0A9E1B3E48093790A90937A0AA093CE
:103200007B0AB0937C0A80E090E0A6EFB2E4809362
:103210007D0A90937E0AA0937F0AB093800A198258
:103220001A821B821C82CE0101966C0120E030E0E4
:1032300046EF52E460E070E089E193E40E941B7382
:1032400082E00E948A740E9488748091CF0B8093E0
:10325000D00B0E94E37283E0809307010E9409DA99
:1032600081E00E94A0A60C94832B0E94A1B1811141
:103270000C94832B80911B05882311F40C948C2BC8
:1032800060E08FE40E94154281110C94832B0C9412
:103290008C2B20E030E04CE252E460910B05709101
:1032A0000C0580910D0590910E050E941EF7AB0153
:1032B000BC0188E50E948C8F6C8F7D8F8E8F9F8FD5
:1032C00020E030E040E551E460910F057091100579
:1032D00080911105909112050E941EF7AB01BC016F
:1032E00089E50E948C8F9B01AC0169837A838B8373
:1032F0009C836C8D7D8D8E8D9F8D0E940FC6882343
:1033000011F40C94832B80E00E94A0A60E94FC7212
:1033100061E085E40E94154221E0482FBE016F5F05
:103320007F4FCE014C960E94FCB16B017C019B014A
:10333000AC010E9420F981115FC08C8C9D8CAE8CF9
:10334000BF8C20E030E0A901C501B4010E9428F043
:1033500087FF05C027E137EB41E558EB04C027E1C3
:1033600037EB41E558E3C501B4010E941FF7AB01FB
:10337000BC0187EA92E00E9429AF89809A80AB80E5
:10338000BC8020E030E0A901C501B4010E9428F012
:1033900087FF05C027E137EB41E558EB04C027E183
:1033A00037EB41E558E3C501B4010E941FF7AB01BB
:1033B000BC0182EA92E00E9429AF20E030E0A9013E
:1033C000C701B6010E9428F087FF05C027E137EB4F
:1033D00041E558EB04C027E137EB41E558E3C7016D
:1033E000B6010E941FF7AB01BC018DE992E00E947B
:1033F00029AF8AE00E9481D00E94E3720E9409DA1C
:103400000C94832B109275020C94832B81E0809393
:1034100075020C94832B80913E10882329F189300A
:1034200009F0E2C09DE6C92E91E0D92E2BE0E22EF4
:1034300025E0F22E00E010E0D6018D916D010E9492
:10344000C441882351F00E94A03FF701608371833B
:1034500082839383133009F401E01F5FF4E0EF0EE1
:10346000F11C143049F774C01DE6212E11E0312EF5
:103470000DE6E02E0AE0F02E2BE035E039A328A37C
:103480008CEDC82E8FE0D82E00E010E0D1018D9198
:103490001D010E94C441882309F44BC00E94A03F33
:1034A0002B013C01133049F0F6012081318142812A
:1034B00053810E941EF72B013C01A8A1B9A12D91B7
:1034C0003D914D915C91C301B2010E941EF74B01E9
:1034D0005C012DEB37E346E855EB0E94A2F887FD2F
:1034E0000AC02DEB37E346E855E3C501B4010E945D
:1034F00028F01816F4F4133051F440921705509246
:1035000018056092190570921A0501E012C0A50114
:103510009401F70160817181828193810E941FF77C
:10352000D7016D937D938D939C931397812F0E9468
:10353000446F1F5FB4E0EB0EF11CE8A1F9A13496D3
:10354000F9A3E8A3F4E0CF0ED11C143009F09ECF0C
:10355000002309F449C02091400A3091410A40916A
:10356000420A5091430A60911705709118058091A5
:10357000190590911A050E948EF00E94A7F8609399
:10358000CB117093CC118093CD119093CE1190916B
:10359000A9118091AA11981719F00E947D6A24C080
:1035A0000E94DB6A80916F00982F927081FF05C0A6
:1035B00080916F008D7F80936F004091CB1150916F
:1035C000CC116091CD117091CE1140934C0B509362
:1035D0004D0B60934E0B70934F0B992329F0809104
:1035E0006F00826080936F000E9409DA0C94832B35
:1035F00080913F01882311F40C94832B89E40E946D
:10360000C441082F882321F00E949C3FE82E01C06E
:10361000E12C8AE40E94C441182F882321F00E94E3
:103620009C3FF82E01C0F12C002319F022E02E154A
:1036300028F0112349F032E03F1530F48FEA92E090
:103640000E948FAE0C94832B80E1EBE0F5E0A9E7BC
:10365000BAE001900D928A95E1F70023F1F02091F4
:10366000FD143091FE144E2D4203B001439F700DA6
:10367000112480917F0290918002680F791F072E9C
:10368000000C880B990B0E942FF06093790A7093BD
:103690007A0A80937B0A90937C0A1123F1F020919F
:1036A000FF14309100155F2D5203B001539F700D30
:1036B00011248091810290918202680F791F072E58
:1036C000000C880B990B0E942FF060937D0A709379
:1036D0007E0A80937F0A9093800A60E080E50E94D2
:1036E0001542882381F10023B1F020E030E04CE264
:1036F00052E46091790A70917A0A80917B0A9091E4
:103700007C0A0E941FF76093790A70937A0A80936B
:103710007B0A90937C0A1123B1F020E030E040E571
:1037200051E460917D0A70917E0A80917F0A9091A8
:10373000800A0E941FF760937D0A70937E0A80932F
:103740007F0A9093800A40E050E0BA0186E40E942C
:103750008C8F6B017C0120E030E0A9010E94A2F86F
:10376000181684F420E030E040E752E4C701B601C7
:103770000E94A2F76093590170935A0180935B01F4
:1037800090935C010E94646F0C94832B0E944463AD
:103790000C94832B00913F101091401006371105B7
:1037A00011F40C9460250CF0D3C00C34110509F40D
:1037B00068C40CF05AC00931110509F4C5C23CF5C2
:1037C0000431110509F448C294F40131110509F4DA
:1037D00038C234F40230110508F4BFC10C94632BD5
:1037E0000231110511F40C9408240C94632B06315A
:1037F000110509F45BC20CF455C20731110509F437
:103800005EC20831110509F470C20C94632B0E31AD
:10381000110509F41DC3B4F40B31110509F4BBC241
:103820000CF4ABC20C31110509F408C30D311105BC
:1038300011F00C94632B809136128E7F8093361298
:103840000C94832B0032110509F412C30CF44AC303
:103850000A32110509F4F1C30B34110511F00C946F
:10386000632B0E94E1370C94832B0A36110509F46F
:103870008EC7BCF50435110509F4CAC7E4F4013557
:10388000110509F4AEC74CF40D34110511F00C9478
:10389000632B0E9405380C94832B0235110509F423
:1038A000B4C70335110511F00C94632B81E08093AC
:1038B00070020C94832B0C35110511F40C945424D4
:1038C00034F40535110509F4D6C70C94632B08367A
:1038D000110509F4EBC30936110509F41FC70C944F
:1038E000632B0F36110509F4B5C584F40C361105A8
:1038F00009F4F5C50CF46AC70D36110509F4FAC3CD
:103900000E36110509F493C50C94632B023711058B
:1039100011F40C94F2244CF40037110511F00C94BE
:10392000632B80E090E00E94C1AF0337110511F4D2
:103930000C94F7240537110511F00C94632B60E00B
:1039400080913C1090913D100E9479E10C94832B62
:103950000D3281E0180711F40C94FA280CF06AC0BB
:103960000B3C110511F40C94702684F501391105F6
:1039700011F40C94A5259CF40837110511F40C944E
:10398000962514F40C9493250937110511F40C9421
:103990009E250C38110509F4A8C50C94632B0E3B29
:1039A000110509F4BFC534F40B39110509F4C9C672
:1039B0000C94632B083C110511F40C940026093C6F
:1039C000110511F40C944D260C94632B0C3D11053C
:1039D00011F40C94A927A4F40D3C110511F40C94D6
:1039E000C02614F40C948F260E3C110511F40C948F
:1039F000D026033D110511F40C94F3260C94632B8F
:103A0000023E110511F40C940C283CF40D3D1105F7
:103A100011F40C94B6270C94632B0831A1E01A071B
:103A200011F40C9457280C32114011F40C94E52831
:103A30000C94632B0C3AE1E01E0711F40C94322A2B
:103A40000CF03FC0023921E0120711F40C94C42994
:103A5000DCF40F3241E0140711F40C94BE2914F485
:103A60000C947A29003981E0180711F40C94C129CB
:103A70000139114011F00C94632B81E00E94D3A214
:103A80000E9409DA0C94832B0D39A1E01A0711F476
:103A90000C94422B4CF40A39114011F00C94632B16
:103AA0000E94F6CD0C94832B043AF1E01F0711F429
:103AB0000C94CA29053A114011F40C94CD290C94A8
:103AC000632B083F31E0130711F40C94DE2A1CF538
:103AD000053F51E0150711F40C94D82A4CF4043F2B
:103AE000114011F00C94632B0E948F2D0C94832BAA
:103AF000063FA1E01A0711F40C94DB2A073F11409E
:103B000011F00C94632B61E083E50E9415420E9442
:103B1000BADA0C94832B003AE3E01E0709F4D2C111
:103B20006CF40C3022E0120711F40C94EF2A0335E8
:103B3000134011F40C94F72A0C94632B073E43E0D6
:103B4000140711F40C94342B083E134011F00C941C
:103B5000632B0E943E470C94832BA0903C10B090A6
:103B60003D1080E50E94C441882359F00E94583FCF
:103B70006B017C0111E0672B682B692B31F410E09D
:103B800004C010E0C12CD12C760183E50E94C44111
:103B9000882311F40C948F2B0E94A03F20E030E08A
:103BA0004AE754E40E948EF00E941BF86B017C01EE
:103BB00011110BC0672B682B692B39F4A114B104C8
:103BC00021F0D5018C91811102C010E001C011E0FB
:103BD0000E94DB6A112329F061E0C5010E9479E1AE
:103BE00005C060E08EEC92E00E943FE181E08093AE
:103BF0004515C114D104E104F104B1F00E94BCE008
:103C0000C60ED71EE81EF91E0E94BCE0DC01CB01E7
:103C10008C199D09AE09BF09B7FF0DC080914515EC
:103C200081110C94942B07C080914515882319F0BD
:103C30000E9488D0F9CF0E949FE1109245150C9404
:103C4000832B60E081EE92E00E943FE15E985E98F7
:103C500015985E980C94832B89EF92E00E948FAEAA
:103C600010922B0B83E592E10E94C84B8BE1E3E5B8
:103C7000F2E1DE01119601900D928A95E1F740E0A4
:103C800050E0BE016F5F7F4F80E090E00E940789A7
:103C9000CE0101960E9401498AEE92E00E948FAE09
:103CA0000C94832B0E9474870C94832B0E94FC86B7
:103CB00080913612877F809336120C94832BE0918B
:103CC0003C10F0913D108081882329F0803209F466
:103CD00010823196F8CF40E061E080913C109091E5
:103CE0003D100E94A58A0C94832B83E50E94C44159
:103CF000882321F00E94683F0E94949384E50E94EB
:103D0000C4418823A9F00E94683F6B017C010E9496
:103D1000C637C0927602D0927702E0927802F09293
:103D20007902CD28CE28CF2819F081E080937E0239
:103D30000E94A293882321F00E940B870E94E13702
:103D40000E949FE10C94832B8091361282FF03C066
:103D50008B7F8093361280917E02813089F782E0DA
:103D600080937E020E94BCE060937A0270937B0293
:103D700080937C0290937D02E3CF8091361283FD85
:103D800002C00C94832B83E50E94C44181110C94E2
:103D9000982B0C94832B83E40E94D33F882319F142
:103DA00084E193E00E948FAE80919A13882391F072
:103DB000BE016F5F7F4F87E993E10E9484838E018C
:103DC0000F5F1F4FF80181918F01882339F00E9406
:103DD00081D0F8CF8AE093E00E948FAE8AE00E9403
:103DE00081D00C94832B8091361282FF21C083E214
:103DF00093E00E948FAE60913212709133128091E5
:103E00003412909135124AE00E94D4D28FE20E947F
:103E100081D060912E1270912F128091301290916A
:103E200031124AE00E94D4D20E94D2D30C94832B48
:103E300085E393E00E948FAE0C94832B40E060E01A
:103E400080913C1090913D100E94A58A0C94832B88
:103E50008091361283FD02C00C94832B0E942D6347
:103E600080913C1090913D100E948D880C94832B82
:103E70008091361282FD0E94DB6A8091361283FDAA
:103E800002C00C94832B60E080E50E941542182F3D
:103E9000482F61E080913C1090913D100E94A58ACE
:103EA00083E50E94C441882321F00E94683F0E945C
:103EB00094930E940B8711110C94832B0E94E1377D
:103EC0000C94832B20913C1030913D109091361230
:103ED00092609093361240E060E0C9010E94A58A8A
:103EE0000C94832B0E9492377B018C0120E831E5F2
:103EF00041E050E00E947EF6C9016DE671E00E944B
:103F0000EDF64B015C01C801B70120E13EE040E065
:103F100050E00E947EF6CA01B90128E130E040E09D
:103F200050E00E947EF6762E672EC62ED72EBCE37A
:103F30002B2E312C412C512CC801B701A20191012B
:103F40000E947EF6F62EE72ECA01B901A201910168
:103F50000E947EF6CB018E010F5F1F4F81149104EA
:103F600099F0EF92FF927F936F936F927F92BF923F
:103F7000AF929F928F928EE693E09F938F931F93C1
:103F80000F930E94C0EF13C0A114B104B1F0EF92DF
:103F9000FF927F936F936F927F92BF92AF928EE565
:103FA00093E09F938F931F930F930E94C0EF0FB6E0
:103FB000F894DEBF0FBECDBF30C0CD2879F0EF92B0
:103FC000FF927F936F936F927F9282E593E09F932E
:103FD0008F931F930F930E94C0EFE9CF892B69F055
:103FE000EF92FF927F936F938AE493E09F938F9376
:103FF0001F930F930E94C0EFDACFEF92FF9286E4F7
:1040000093E09F938F931F930F930E94C0EF0F90A5
:104010000F900F900F900F900F9060E0C8010E94DA
:1040200079E10E945EAFB80182E893E00E9447AF59
:104030008AE00E9481D00C94832B83E50E94C441C6
:10404000882311F40C94832B0E94783FF82E6FEF95
:104050007FEF80E50E94FA418C0197FF02C00C942B
:10406000832BE82E60E089E40E94154281110C94B4
:104070009D2B802F0E945FEA81110C9429280C94BB
:104080009D2B80917E02813011F00C94832B82E075
:1040900080937E020E94BCE060937A0270937B0260
:1040A00080937C0290937D020C94832B80911F0A55
:1040B00083FF02C00C94832B0E94D14187FF02C072
:1040C0000C94832B83E50E94C441882379F00E94DD
:1040D000A03F0E9414F88B01CB010E94264F0635A9
:1040E000110524F40E9405380E949FE10E94A1E47A
:1040F0000C94832B80911F0A83FF02C00C94832BA6
:104100000E94D1418EA787FF02C00C94832B83E5C8
:104110000E94C44188A3811106C082E50E94C44167
:10412000182F8823C9F10E94A03F0E9414F8CB01E8
:104130000E94264F0E94A03F20E030E04AEA52E46D
:104140000E9428F0181614F40C94B02B0E94053825
:104150000E949FE160915E0570915F05072E000C43
:10416000880B990B0E942FF06B017C0180905A05FF
:1041700090905B05A0905C05B0905D05A501940151
:104180000E94A2F8181614F40C94C32BB8A1BB23F8
:1041900011F40C94B42B11E00E94A1E4112311F44A
:1041A0000C94832B81E0809354011EA21FA218A6B9
:1041B00019A61AAA1BAA1CAA1DAAE1E0EEAB1AA214
:1041C0001FAAFCE3F8AF2CE129AF36E43AAFC12CCB
:1041D000D12CF0E8EF2EAFEBFA2E812C912C54016C
:1041E00060915E0570915F05072E000C880B990B9E
:1041F0000E942FF0162F072F782E692E9601A70107
:104200000E9428F08823F1F020915A0530915B0537
:1042100040915C0550915D0588A1612F702F81113F
:1042200009C0872D962D0E9428F0881F8827881F97
:104230008AA30CC0872D962D0E9428F087FD64C2AA
:104240001AA204C01C2D0D2D7E2C6F2C0E94BCE0E8
:104250006B017C01DC01CB012AA93BA94CA95DA91A
:10426000821B930BA40BB50BB7FD33C0D701C6015E
:1042700088519C4FAF4FBF4F8AAB9BABACABBDAB34
:104280008EA50E94EC4C8FE893E00E948FAE8114C3
:104290009104A104B104B9F0D501C401805F984D27
:1042A000AF4FBF4FBC01CD016C197D098E099F092D
:1042B00028EE33E040E050E00E947EF6CA01B901EA
:1042C0000E9441D303C08FE30E9481D08AE00E9404
:1042D00081D00E9488D00E94BCE0609364027093F9
:1042E0006502809366029093670290915A059AA79F
:1042F000A0915B05ABA7B0915C05BCA7E0915D0503
:10430000EDA7292F3A2F4B2F5E2F612F702F872D6E
:10431000962D0E941EF71B012C0120E030E0A90120
:104320000E94A2F887FF04C057FA509457F850949F
:1043300081149104A104B104B1F420E030E040E81C
:104340005FE3C201B1010E9428F087FF18C0FEA9F7
:1043500046015701FF2399F020E1820E27E2921EC9
:10436000A11CB11C0CC020E030E040E450E4C201CC
:10437000B1010E94A2F8181614F4460157013AA19F
:104380003323C1F18EA19FA1A8A5B9A5892B8A2BA2
:104390008B2B61F0D701C6012EA13FA148A559A5DD
:1043A000821B930BA40BB50BB7FD24C02AA53BA51C
:1043B0004CA55DA56FA978AD89AD9AAD0E941EF799
:1043C00020E030E040EC5FE30E9428F087FD9CC1D4
:1043D000D701C601805A9541AF4FBF4F8EA39FA30F
:1043E000A8A7B9A79AA59FABABA5A8AFBCA5B9AF25
:1043F000EDA5EAAF80915401882309F485C18114A9
:104400009104A104B10431F41EAAC12ED02EE72CD0
:10441000F62CE6CEF0E1CF1AF7E2DF0AE108F10868
:10442000C818D908EA08FB08F7FCEECF6DC18EE486
:104430000E94C441882311F40C94832B0E94683F8E
:104440006093C4107093C5108093C6109093C710EA
:104450000C94832B83E50E94D33F882331F060E0E6
:1044600083E50E94094280931F0A0E945EAF8BEB96
:1044700093E00E948FAE80911F0A882369F1E1EBDF
:10448000EE2EE3E0FE2E00E010E020E080911F0A17
:1044900090E0A0E0B0E0002E04C0B695A7959795F7
:1044A00087950A94D2F780FF0EC0DD24D394D20EF4
:1044B000222319F08CE20E9481D0F701859194911A
:1044C0000E948FAE2D2D0F5F1F4F32E0E30EF11CC7
:1044D00005301105D9F682CC8DEA93E07DCC10929F
:1044E0004515109254010C94832B80911F0A83FF71
:1044F00002C00C94832B83E50E94C441882311F4ED
:104500000C94832B0E94A03F0E9414F86C38710514
:104510000CF48B011093A9020093A8020E94564943
:104520000C94832B80911F0A83FF02C00C94832B71
:1045300083E50E94C4418DA7811107C082E50E94D6
:10454000C441882311F40C94832B0E94A03F0E9445
:1045500014F86C38710514F00C94852C7093A90232
:104560006093A8020E9456490E94A03F20E030E0DC
:1045700040EA50E40E94A2F8181614F40E94E137B1
:104580006091A8027091A902072E000C880B990B6C
:104590000E942FF02091A4023091A5024091A60222
:1045A0005091A7020E94A2F8181614F00C94C62B82
:1045B00085ED93E060E00E943FE181E0809354014B
:1045C0001AA21BA21CA21DA21EA61FA618AA19AAE7
:1045D00018A21EAA4CE34FAB5CE158AF86E489AF4A
:1045E000C12CD12C60E8E62E7FEBF72E91E09AAB40
:1045F000812C912C54016091A8027091A902072E80
:10460000000C880B990B0E942FF0162F072F782E85
:10461000692E9601A7010E9428F0882311F40C94BA
:10462000D32B2091A4023091A5024091A602509173
:10463000A702ADA5612F702F872D962DA1110C9487
:10464000CA2B0E9428F0881F8827881F88A30E94F1
:10465000BCE06B017C01DC01CB012EA53FA548A984
:1046600059A9821B930BA40BB50BB7FD02C00C9488
:10467000D92B0E9488D00E94BCE0609364027093A2
:10468000650280936602909367029091A4029EA3B4
:10469000A091A502AAA7B091A602BBA7E091A7028C
:1046A000ECA7292F3A2F4B2F5E2F612F702F872DCC
:1046B000962D0E941EF71B012C0120E030E0A9017D
:1046C0000E94A2F887FF04C057FA509457F85094FC
:1046D00081149104A104B10411F00C941D2C20E06C
:1046E00030E040E85FE3C201B1010E9428F087FF9B
:1046F00002C00C940E2C38A131110C942D2C8091F9
:10470000540181110C946B2C80915401882311F475
:104710000C94832B0E949FE10C94832B0E94D14127
:10472000182F87FF02C00C94762D84EE93E00E9430
:104730008FAE812F0E94EC4C8AE00E9481D00C94B5
:10474000762D83E50E94C441882309F4DCC70E94CA
:10475000783F182F90E0CD970CF01CE310936C027B
:104760000E94BCE06B017C01212F30E0A8EEB3E099
:104770000E94D2F6C60ED71EE81EF91EC09268022D
:10478000D0926902E0926A02F0926B02BCC760E0CC
:1047900080E50E9409428111B6C781E40E94D33F9F
:1047A000882321F06091440570E002C06FEF70E053
:1047B00083E50E9492C68F3F910519F010F08FEFAC
:1047C00090E08093440580931D109DC760E080E5D4
:1047D0000E940942811197C71092440510921D1042
:1047E00092C70E94374F0E9405380E948A6C0E942F
:1047F00027CE68EE73E080E090E00E9405AE60E0B6
:1048000087EE93E00E943FE17EC7109270027BC763
:1048100083E50E94C441882399F00E94A03F20E0D4
:1048200030E04AE754E40E948EF00E941BF8609347
:10483000000170930101809302019093030163C70B
:1048400088E50E94D33F81110C94892C89E50E9450
:10485000D33F81110C94892C8AE50E94D33F8111AA
:104860000C94892C85E40E94D33F81110C94892CEF
:104870000E948A6C48C783E50E94D33F882309F4CD
:1048800042C70E94A03F20E030E04AE754E40E9483
:104890008EF00E941BF860937102709372028093F5
:1048A0007302909374022FC70E94D14187FD2BC7DA
:1048B0009091381094FD04C090913A1097FF0AC06F
:1048C0004DE6C42E41E0D42E50E2E52E5AE0F52EFE
:1048D00010E009C090913B10937091F7682F81E030
:1048E0000E941D3F10C7D6018D916D010E94C441E9
:1048F000882309F46DC0133009F063C00E94A03F03
:104900004B015C0120E030E040EA51E40E9428F0D5
:1049100087FF4EC0A50194016091400A7091410A41
:104920008091420A9091430A0E94A2F72B013C0118
:104930009B01AC01609128057091290580912A05A1
:1049400090912B050E948EF06093280570932905A5
:1049500080932A0590932B05A30192016091500A40
:104960007091510A8091520A9091530A0E948EF0E0
:104970006093500A7093510A8093520A9093530A9D
:10498000609138057091390580913A0590913B0509
:104990000E942DF0A30192010E948EF00E941BF84C
:1049A000609338057093390580933A0590933B05E1
:1049B0008092400A9092410AA092420AB092430A21
:1049C00007C00E94A03FF701648B758B868B978B85
:1049D0001F5FF4E0EF0EF11C143009F084CF0E9449
:1049E0005FA491C60E94DB6A0E9409DA8CC68BE143
:1049F00095E00E948FAE60E08BE095E00E94A5C636
:104A000060E086EF94E00E94A5C661E08FEE94E03E
:104A10000E94A5C661E084EE94E00E94A5C661E014
:104A200084ED94E00E94A5C660E08BEC94E00E94C7
:104A3000A5C661E081EC94E00E94A5C661E087EB29
:104A400094E00E94A5C661E08FEA94E00E94A5C6AA
:104A500061E081EA94E00E94A5C660E083E994E009
:104A60000E94A5C660E084E894E00E94A5C660E0CC
:104A700086E794E00E94A5C660E080E694E00E948C
:104A8000A5C660E08FE494E00E94A5C660E080E4E3
:104A900094E00E94A5C660E08BE294E00E94A5C667
:104AA00061E088E194E00E94A5C660E08BE094E0BC
:104AB0000E94A5C660E087EF93E00E94A5C623C6CA
:104AC00000913C1010913D1083E0F12C40E08150AA
:104AD000E9F0D8019C91292F2B7F2134C1F7119641
:104AE0002C912133A1F7913421F0953421F441E048
:104AF00002C0FF24F39498012E5F3F4F89012F5F7E
:104B00003F4FF80190819032C9F3E1CF41110E94EB
:104B10005EAFFF2021F088EE95E00E948FAEC801C5
:104B20000E94D8D3F0C50E947BD8EDC581E0809368
:104B3000D00B8093CF0B0E94D7D8E5C51092D00B35
:104B40001092CF0B0E94D7D8DEC560E070E083E5FD
:104B50000E94FA418C011127023011053CF00E949D
:104B60005AAF8CEE95E00E948FAECDC588E40E94CE
:104B7000C4418823A9F00E949C3F8A3A91053CF0E9
:104B80008530F1E09F072CF084E091E002C08AEAD2
:104B900090E0F801EE0FFF1FE95FFA4E91838083EA
:104BA00086E40E94C441882381F00E949C3F97FDC7
:104BB00007C08F3F910529F024F08FEF90E001C0EE
:104BC00080E0F801EF5FFA4E808382E40E94C441E6
:104BD000882309F498C50E949C3F8530910534F0E4
:104BE0008D3891052CF08CE890E002C085E090E0D3
:104BF000000F111FF801ED5FFA4E9183808383C58A
:104C00000E94D141182F87FD7EC584E40E94D33FC6
:104C1000882309F43FC00E94A03F6B017C0101E0A2
:104C200020E030E0A9010E9428F0811101C000E0DD
:104C30000093950A20E030E0A901C701B6010E9467
:104C400028F0882339F10E94A03F24E01202F001ED
:104C50001124E656F54F608371838283938320E0AD
:104C600030E0A90160919A0A70919B0A80919C0A98
:104C700090919D0A0E9428F081110CC080E090E084
:104C8000A0E4B0E480939A0A90939B0AA0939C0AB4
:104C9000B0939D0A0E94FD6936C50E94D14187FDEF
:104CA00032C59DE6E92E91E0F92E00E21AE0D70127
:104CB0008D917D010E94D33F882349F00E94A03F3F
:104CC0000E941BF8F80160837183828393830C5FD9
:104CD0001F4FFAE000331F0751F70E9418A413C5B5
:104CE0000E94D14187FD0FC58DE6E82E81E0F82EA8
:104CF00000E21AE0D7018D917D010E94D33F882305
:104D000039F00E94A03FF80164A375A386A397A37E
:104D10000C5F1F4FFAE000331F0761F7F4C4809166
:104D2000391087FD1BC680913A108E7009F016C6A7
:104D30004091540A5091550A6091560A7091570A51
:104D400084E196E00E9429AF4091580A5091590A97
:104D500060915A0A70915B0A81E196E00E9429AF46
:104D600040915C0A50915D0A60915E0A70915F0A01
:104D70008EE096E00E9429AF8AE00E9481D0C3C4F1
:104D800080913810827109F02FC680913A108C788A
:104D900009F02AC680913B10837009F025C6B3C480
:104DA0001DE6C12E11E0D12E0FEFE02E0DE0F02E0A
:104DB00010E0D6018D916D010E94D33F882351F000
:104DC0000E94A03FF7016083718382839383812FC8
:104DD0000E94446F1F5FF4E0EF0EF11C133049F79F
:104DE0000E9409DA90C40E945EAF86E796E00E94B6
:104DF0008FAE83E50E94D33F882321F00E948C3F31
:104E00008093260180912601882319F083EC97E096
:104E100002C08FEB97E00E948FAE8EE696E00E9474
:104E20008FAE2091DC0F3091DD0F4091DE0F50915D
:104E3000DF0F60910E0170910F0180911001909130
:104E400011010E941FF7AB01BC018CE696E00E94A5
:104E500029AF2091E00F3091E10F4091E20F509186
:104E6000E30F6091160170911701809118019091E4
:104E700019010E941FF7AB01BC0189E696E00E9470
:104E800029AF2091E40F3091E50F4091E60F50914A
:104E9000E70F60911E0170911F0180912001909198
:104EA00021010E941FF7AB01BC0186E696E00E943B
:104EB00029AF8EE596E00E948FAE2091DC0F3091F5
:104EC000DD0F4091DE0F5091DF0F60911201709164
:104ED000130180911401909115010E941FF7AB01FD
:104EE000BC018CE596E00E9429AF2091E00F309143
:104EF000E10F4091E20F5091E30F60911A01709120
:104F00001B0180911C0190911D010E941FF7AB01B4
:104F1000BC0189E596E00E9429AF2091E40F309111
:104F2000E50F4091E60F5091E70F609122017091DB
:104F3000230180912401909125010E941FF7AB016C
:104F4000BC0186E596E00E9429AF8AE00E9481D0EC
:104F5000DAC383E50E94C441882309F4D4C30E94C4
:104F60009C3F9093280180932701CDC30E94D1419B
:104F7000F82E87FDC8C383E50E94C4410F2D0F2C76
:104F8000000C110B882369F10E949C3FF801EE0F81
:104F9000FF1FE35DFE4F91838083000F111F000F01
:104FA000111F9801285F3E4F7901BC01990F880BB2
:104FB000990B0E942FF02AE037ED43E25CE30E9458
:104FC0008EF0F801EA56F54F2081318142815381FC
:104FD0000E948EF0D7016D937D938D939C931397D0
:104FE00092C30E945EAF85E40E9481D080E38F0D62
:104FF0000E9481D0000F111FF801E35DFE4F608118
:10500000718186E896E00E943AAF85E20E9481D0E5
:105010008AE00E9481D077C380E50E94D33F882335
:1050200009F471C360E070E080E50E94FA41F82E57
:105030006FEF7FEF83E50E94FA418C0101960397A1
:1050400008F061C3F7FC5FC38F2D0E945FEA8823DD
:1050500039F00E945AAF8EE896E00E948FAE53C39B
:105060000E94DB6A60E08F2D0E94D4DF0F3FBFEF0C
:105070001B0731F00130110571F000E010E00DC0A8
:105080008F2D0E947CDF31E020E0892B09F030E099
:10509000032F122F02C001E010E08F2D0E947CDF51
:1050A0008017910709F42FC30E9488D0F6CF80E5BE
:1050B0000E94D33F882309F426C30E949C3F8C01A1
:1050C000892B09F076C083E50E94D33F882341F005
:1050D0000E949C3FBC0183EA91E10E943CCE13C335
:1050E0000E945EAF60E070E086EB96E00E943AAF0F
:1050F0008091A51128E532E06901C81AD10887FD21
:10510000D394CC0CDD1CCC0CDD1C0D2C000CEE085B
:10511000FF088091A41128E830E04901881A91081D
:1051200087FD9394880C991C880C991C092C000C01
:10513000AA08BB088091A3118F3FC1F090E0FC0149
:10514000EE0FFF1F8E0F9F1FFC01E258FE4E2181C4
:10515000328153E0220F331F5A95E1F764E0369510
:1051600027956A95E1F72E5F3F4F02C020E030E0BF
:105170002F5F3F4FC901330FAA0BBB0B9C01AD0141
:10518000281939094A095B09A4EBB0E00E94BFF66F
:10519000A7019601281939094A095B090E94A0F65E
:1051A000B90183EB96E00E943AAF8AE00E9481D079
:1051B000AAC20E945AAFB8018CEA96E00E943AAFA8
:1051C0008DE996E00E948FAE9EC264E071E083E5B7
:1051D0000E9492C68C0168EE73E080E50E9492C640
:1051E0008938E3E19E0710F088E893E1B8010E9456
:1051F00012E189C260E085E40E940942811173C016
:1052000080E50E94D33F882351F00E94A03F609325
:10521000610570936205809363059093640589E44A
:105220000E94D33F882381F00E94A03F2CEA35ECF6
:1052300047E25EE30E948EF0609365057093660519
:10524000809367059093680584E40E94D33F882388
:1052500081F00E94A03F2CEA35EC47E25EE30E9419
:10526000A2F76093690570936A0580936B0590932C
:105270006C050E945EAF409161055091620560919E
:1052800063057091640588ED96E00E9429AF2CEAD1
:1052900035EC47E25EE360916505709166058091AB
:1052A0006705909168050E94A2F7AB01BC0184EDEF
:1052B00096E00E9429AF2CEA35EC47E25EE360916C
:1052C000690570916A0580916B0590916C050E944B
:1052D0008EF0AB01BC0180ED96E00E9429AF8AE020
:1052E0000E9481D010C20E945AAF8EEB96E00E94BD
:1052F0008FAE09C283E50E94D33F182F882371F037
:105300000E94A03F0E9414F870930D0160930C015D
:1053100021E0672B09F020E02093550580E50E94ED
:10532000D33F882359F020910C0130910D01232B9C
:1053300011F00E948C3F80935505E5C11111E3C126
:105340000E945EAF88EF96E00E948FAE8091550577
:10535000882319F080EE96E002C08CED96E00E9462
:105360008FAE60910C0170910D0187EE96E00E9466
:105370003AAF83EE96E00E948FAEC5C10E94A38F24
:10538000C2C10E94DB6ABFC180E00E94D3A20E941A
:1053900009DAB9C10E941C40B6C16FEF7FEF89E402
:1053A0000E94FA41182F6FEF7FEF8AE40E94FA41C2
:1053B000082F8AE50E94D33FF82E811105C081E5B0
:1053C0000E94D33FD82E01C0D12C17FD06C007FD87
:1053D00004C0F11009C0D11007C00E945AAF8AE280
:1053E00097E00E948FAE8FC1133010F4033038F075
:1053F0000E945AAF8BE097E00E948FAE84C1E12EED
:10540000110FFF08002E000C110B0E94A03FD701C6
:10541000AA0FBB1FDD2081F0FD01EE0DFF1DE00F87
:10542000F11FEE0FFF1FEE0FFF1FE55FFA4E208109
:1054300031814281538103C020E030E0A901EA0EAE
:10544000FB1E0E0D1F1D000F111F000F111F055F0A
:105450001A4E0E941FF7D8016D937D938D939C93F4
:10546000139751C10E94A1B181114DC102E41FE007
:10547000EBE0F5E0F9A3E8A39E012F5F3F4F590150
:1054800097E9892E9FE0992E1901F8016591759190
:1054900085919491A8A1B9A1CD90DD90ED90FD905A
:1054A000B9A3A8A3A70196010E941EF72B013C01F6
:1054B000F101608371838283938320E030E040EACE
:1054C00051EC0E94A2F887FD0AC020E030E040EADB
:1054D00051E4C301B2010E9428F018162CF4F40123
:1054E000849118160CF4F7C2D101CD90DD90ED90A7
:1054F000FD901D0120E030E040EA51ECC701B6010B
:105500000E94A2F887FD0AC020E030E040EA51E4A2
:10551000C701B6010E9428F01816A4F40E945AAFE1
:1055200088E697E00E948FAE61E08AE597E00E94EE
:105530003FE10E94C8B968E270E088EC90E00E9408
:1055400012E1E1C00C5F1F4FBFEF8B1A9B0AEEE424
:10555000FFE0E017F10709F098CF8FEFE82E8DE01C
:10556000F82E10E0F50181919191A191B1915F0127
:10557000F70181939193A193B1937F01812F0E94B1
:10558000446F1F5F133071F70E9409DA60E08AE40C
:1055900097E00E943FE163E972E084E690E00E94B8
:1055A00012E16AEB72E084E690E00E9412E1ABC087
:1055B0000E94FBD9A8C00E94E6D8A5C081E08093D4
:1055C000F8140E94FB311092F814882309F49BC050
:1055D0000E945EAF86E897E00E948FAE94C08091F3
:1055E000361282FF90C08062809336128CC08AE5AA
:1055F0000E94C441882331F10E94A03F6B017C01CD
:1056000020E030E040EA51EC0E94A2F887FD13C090
:1056100020E030E040EA51E4C701B6010E9428F0E2
:1056200018164CF0C092E80FD092E90FE092EA0F02
:10563000F092EB0F68C00E945AAF81E997E00E9498
:105640008FAE61C00E945EAF4091E80F5091E90FAC
:105650006091EA0F7091EB0F8EEA97E00E9429AFFC
:105660008AE00E9481D04FC081E080933F01109278
:10567000FF0260E083E50E941542811144C00E9450
:10568000D2C241C083E50E94D33F882339F00E94F3
:105690008C3F8093FE0D0E941B4735C00E945EAF79
:1056A00086EC97E00E948FAE8091FE0D882319F062
:1056B00083EC97E002C08FEB97E00E948FAE8AE008
:1056C0000E9481D020C00E9444631DC000913F1001
:1056D000109140100023B9F00E945EAF84E50E9453
:1056E00081D0B8017727072E000C880B990B0E94F8
:1056F00041D380E20E9481D08BED97E00E948FAE73
:1057000002C00E944463FBADF111F0C10E94C2C20D
:10571000EDC1012F0C9482180E942A42F4CF11117E
:105720000C94E51D0C94DE1D0E9488D00C94041E80
:105730000E94683F0E949493E6CF61E0802F0E9410
:10574000D4DF6F2D802F0E94A5DF6F2D70E0802F9A
:105750000E9410E024E0E212D6CFF0924405D3CFAD
:105760000E94E1370C94AA20A5019401C701B6015B
:105770000E94A2F818163CF083E993E060E00E94D2
:105780003FE10C94CB2080EA93E0F8CF86EC93E0E5
:105790000C94DA220E9428F087FF02C00C94842324
:1057A00018A20C9427231C2D0D2D7E2C6F2C0C94ED
:1057B0002723D701C60188519C4FAF4FBF4F8EA7FB
:1057C0009FA7A8ABB9AB80E00E94EC4C82EC93E0C1
:1057D0000E948FAE81149104A104B104B9F0D501E7
:1057E000C401805F984DAF4FBF4FBC01CD016C1914
:1057F0007D098E099F0928EE33E040E050E00E94C9
:105800007EF6CA01B9010E9441D303C08FE30E9412
:1058100081D08AE00E9481D00C943923FAA94601F4
:105820005701FF2311F40C947B2320E1820E27E221
:10583000921EA11CB11C0C947B2320E030E040E4BC
:1058400050E4C201B1010E94A2F8181614F00C94A1
:105850007B23460157010C947B238AA19BA1ACA119
:10586000BDA1892B8A2B8B2B71F0D701C6012AA1F0
:105870003BA14CA15DA1821B930BA40BB50BB7FF01
:1058800002C00C947F232EA13AA54BA55CA56EA95E
:105890007FA988AD99AD0E941EF720E030E040EC72
:1058A0005FE30E9428F087FF02C00C948423D70195
:1058B000C601805A9541AF4FBF4F8AA39BA3ACA3AB
:1058C000BDA39EA19EABAAA5AFABBBA5B8AFECA5EF
:1058D000E9AF0C947F2381149104A104B10439F43D
:1058E0001AAAC12ED02EE72CF62C0C94FB22F0E144
:1058F000CF1AF7E2DF0AE108F108C818D908EA0868
:10590000FB08F7FCEDCF0C9484236CE870E00C945A
:10591000AE220E94DB6A88E50E94D33F882331F0E3
:105920005E9A8091DB0F8E7F8093DB0F89E50E946A
:10593000D33F882331F05E9A8091DB0F8D7F809377
:10594000DB0F8AE50E94D33F882309F4DCCE159A49
:105950008091DB0F8B7F8093DB0FD5CE83E50E9498
:10596000C441882391F00E94A03F6093540A709331
:10597000550A8093560A9093570A60935C0A709375
:105980005D0A80935E0A90935F0A80E50E94C4419D
:10599000882351F00E94A03F6093540A7093550AE7
:1059A0008093560A9093570A82E50E94C441882347
:1059B00051F00E94A03F6093580A7093590A809357
:1059C0005A0A90935B0A84E50E94C441882309F433
:1059D0009ACE0E94A03F60935C0A70935D0A809308
:1059E0005E0A90935F0A8FCE82E40E94D33F8823A1
:1059F00051F00E94583F6093300A7093310A8093AF
:105A0000320A9093330A83E50E94D33F882351F0F2
:105A10000E94A03F6093600A7093610A8093620ABB
:105A20009093630A84E50E94D33F882351F00E943B
:105A3000A03F6093640A7093650A8093660A90930E
:105A4000670A88E50E94D33F882351F00E94A03F57
:105A500060931C0570931D0580931E0590931F0590
:105A600089E50E94D33F882351F00E94A03F6093B4
:105A700020057093210580932205909323058AE5E4
:105A80000E94D33F8823B1F00E94A03F6093240579
:105A90007093250580932605909327052DEC3CEC0B
:105AA0004CEC5DE30E9428F0181624F084E296E0A6
:105AB0000E948FAE85E40E94D33F882309F423CE51
:105AC0000E94A03F609328057093290580932A05C2
:105AD00090932B0518CEF7FAF094F7F8F094D101D3
